:100000000C9462000C948A000C948A000C948A0070
:100010000C948A000C948A000C948A000C948A0038
:100020000C948A000C948A000C948A000C948A0028
:100030000C948A000C948A000C948A000C948A0018
:100040000C9413030C948A000C948A000C948A007C
:100050000C948A000C948A000C948A000C948A00F8
:100060000C948A000C948A000000000023002600F3
:10007000290000000000240027002A0000000000E2
:10008000250028002B0004040404040404040202D4
:100090000202020203030303030301020408102007
:1000A0004080010204081020010204081020000012
:1000B0000008000201000003040700000000000027
:1000C0000000090411241FBECFEFD8E0DEBFCDBF72
:1000D00011E0A0E0B1E0EEE5F8E002C005900D927D
:1000E000AC31B107D9F721E0ACE1B1E001C01D921C
:1000F000A134B207E1F710E0C2E6D0E004C02197D6
:10010000FE010E942704C136D107C9F70E945D0392
:100110000C942D040C940000833081F028F481307D
:1001200099F08230A9F008958730A9F08830C9F09D
:100130008430B1F4809180008F7D03C08091800075
:100140008F7780938000089584B58F7784BD08955C
:1001500084B58F7DFBCF8091B0008F778093B00006
:1001600008958091B0008F7DF9CF1F93CF93DF93D7
:10017000282F30E0F901E255FF4F8491F901E6564E
:10018000FF4FD491F901EA57FF4FC491CC23A9F056
:10019000162F81110E948C00EC2FF0E0EE0FFF1F54
:1001A000E458FF4FA591B4918FB7F894EC911111D9
:1001B00008C0D095DE23DC938FBFDF91CF911F91D4
:1001C0000895DE2BF8CFCF93DF9390E0FC01E65645
:1001D000FF4F24918A579F4FFC0184918823D1F0CF
:1001E00090E0880F991FFC01EE58FF4FA591B49144
:1001F000FC01E458FF4FC591D49161110EC09FB727
:10020000F8948C91E22FE0958E238C932881E22341
:10021000E8839FBFDF91CF9108958FB7F894EC9159
:10022000E22BEC938FBFF6CFCF93DF93EC0161E02D
:1002300081E00E94E300209731F460E081E0DF91EB
:10024000CF910C94B500CF3FD10511F461E0F6CF0A
:10025000EFEAF0E0E491E33029F140F4E130B1F06D
:10026000E230D9F0C038D1058CF7E7CFE73021F183
:10027000E83051F1E430B1F78091800080628093E2
:100280008000D0938B00C0938A0004C084B580683E
:1002900084BDC7BDDF91CF91089584B5806284BDD0
:1002A000C8BDF8CF80918000806880938000D09393
:1002B0008900C0938800EECF8091B0008068809361
:1002C000B000C093B300E6CF8091B000806280930D
:1002D000B000C093B400DECFAF92BF92CF92DF9256
:1002E000EF92FF920F931F93CF93DF936C017B01EB
:1002F0008B01040F151FEB015E01AE18BF08C0177C
:10030000D10759F06991D601ED91FC910190F081EE
:10031000E02DC6010995892B79F7C501DF91CF91B1
:100320001F910F91FF90EF90DF90CF90BF90AF9013
:100330000895089590E080E00895CF93DF93EC0155
:1003400060E08E810E94B50061E08E810E94B50060
:1003500060E08E810E94B5008BE891E00197F1F793
:10036000DF91CF910895CF92DF92EF92FF920F939A
:100370001F93CF93DF936C017C0187E0E80EF11CA3
:10038000D0E0C0E0062F10E0B8010C2E02C0759539
:1003900067950A94E2F76170F70181917F010E94ED
:1003A000B5002196C430D10579F7C601DF91CF9110
:1003B0001F910F91FF90EF90DF90CF900C949D01D3
:1003C000CF92DF92EF92FF920F931F93CF93DF9321
:1003D000EC01F62E642F8C810E94B5008D818F3F39
:1003E00019F060E00E94B5000F2D10E08F8584FFAA
:1003F00025C06E0187E0C80ED11CF12CE12CB8019C
:100400000E2C02C0759567950A94E2F76170F601AB
:1004100081916F010E94B500FFEFEF1AFF0A88E09B
:10042000E816F10461F7CE01DF91CF911F910F9192
:10043000FF90EF90DF90CF900C949D01B80184E085
:10044000759567958A95E1F7CE010E94B3016F2DEE
:10045000CE01DF91CF911F910F91FF90EF90DF9030
:10046000CF900C94B30140E0682F89E291E00C94A6
:10047000E001CF93DF93823029F4909138019860A6
:100480009093380180933C0110923D0180E4809369
:100490003E0180E180933F0180E58093400161E06F
:1004A00080912D010E94E30080912E018F3F19F071
:1004B00061E00E94E30061E080912F010E94E3006F
:1004C000C9E2D1E09E01295231408091380184FD7A
:1004D0000BC084E090E021962817390744F461E0CE
:1004E0008E810E94E300EECF88E090E0F4CF8BE3B2
:1004F0009DE00197F1F760E080912D010E94B50029
:1005000060E080912F010E94B50080912E018F3F05
:1005100019F060E00E94B5008091380184FD39C077
:1005200063E089E291E00E94B301CBE4D6E4CE011E
:100530000197F1F763E089E291E00E94B30121970E
:10054000F1F763E089E291E00E94B30183E592E074
:100550000197F1F762E089E291E00E94B301809196
:10056000380180620E94330284E0809339018CE07C
:100570000E94330281E00E9433028BE39FE10197E6
:10058000F1F782E080933A0186E0DF91CF910C94FD
:10059000330280620E9433028BE496E40197F1F704
:1005A0008091380180620E94330283E592E00197D6
:1005B000F1F78091380180620E943302D0CF41E090
:1005C0000E94E00181E090E0089581E00E94330202
:1005D0008BE39FE10197F1F7E1E080913C0181110C
:1005E000E0E0E195F0E0E75DFE4F848980680E94DD
:1005F000330245E050E06EE071E089E291E00E9454
:100600006C0180911C0190911D0143E050E064E178
:1006100071E0892B21F042E050E068E171E089E26D
:1006200091E00C946C011F920F920FB60F9211245F
:100630002F933F938F939F93AF93BF938091250107
:1006400090912601A0912701B091280130912401B9
:1006500023E0230F2D3758F50196A11DB11D2093DE
:1006600024018093250190932601A0932701B09344
:1006700028018091200190912101A0912201B09147
:1006800023010196A11DB11D8093200190932101AA
:10069000A0932201B0932301BF91AF919F918F91BD
:1006A0003F912F910F900FBE0F901F90189526E845
:1006B000230F0296A11DB11DD2CF789484B582601C
:1006C00084BD84B5816084BD85B5826085BD85B5F6
:1006D000816085BD80916E00816080936E00109274
:1006E00081008091810082608093810080918100EF
:1006F0008160809381008091800081608093800080
:100700008091B10084608093B1008091B0008160DD
:100710008093B00080917A00846080937A00809109
:100720007A00826080937A0080917A008160809361
:100730007A0080917A00806880937A001092C100DC
:1007400082E00E94390260E083E10E94E300809130
:100750001C0190911D010E9414010E94E502C1EC50
:10076000D0E00DEA10E099E9E92E90E0F92EAA24F4
:10077000AA94B12C30E0C32E30E0D32EFE01849138
:10078000F8019490F7018490882009F43FC081110A
:100790000E948C00E82DF0E0EE0FFF1FE859FF4F9C
:1007A000A591B4918C91982231E020E009F430E0D9
:1007B000832F922F90931F0180931E01209100019F
:1007C000309101012817390791F0892B81F480912C
:1007D0001C0190911D019501281B390BC901309313
:1007E0001D0120931C010E9414010E94E5028091CA
:1007F0001E0190911F019093010180930001C1148B
:10080000D10409F4BBCF0E940000B8CF90E080E093
:10081000D1CFE9E2F1E01382128286E091E0918388
:1008200080838CE084838FEF85838BE0868385E0F3
:10083000878384E0808783E0818782E082871386D4
:10084000148615861686178681E00C943902EE0F01
:0E085000FF1F0590F491E02D0994F894FFCF5E
:10085E00010000000000DF026C019A0199016D6F2A
:0C086E00746F72004F4646004F4E0000B1
:00000001FF
