:100000000C9462000C948A000C948A000C948A0070
:100010000C948A000C948A000C948A000C948A0038
:100020000C948A000C948A000C948A000C948A0028
:100030000C948A000C948A000C948A000C948A0018
:100040000C942A020C948A000C948A000C948A0066
:100050000C948A000C948A000C948A000C948A00F8
:100060000C948A000C948A000000000024002700F1
:100070002A0000000000250028002B0000000000DE
:1000800023002600290004040404040404040202DA
:100090000202020203030303030301020408102007
:1000A0004080010204081020010204081020000012
:1000B0000008000201000003040700000000000027
:1000C0000000F00211241FBECFEFD8E0DEBFCDBF8D
:1000D00011E0A0E0B1E0EAEAF7E002C005900D927D
:1000E000AC30B107D9F721E0ACE0B1E001C01D921E
:1000F000AD32B207E1F710E0C2E6D0E004C02197CC
:10010000FE010E94CD03C136D107C9F70E947402D7
:100110000C94D3030C940000833081F028F48130D8
:1001200099F08230A9F008958730A9F08830C9F09D
:100130008430B1F4809180008F7D03C08091800075
:100140008F7780938000089584B58F7784BD08955C
:1001500084B58F7DFBCF8091B0008F778093B00006
:1001600008958091B0008F7DF9CFCF93DF93EFEAB0
:10017000F0E08491EBE9F0E0D491E7E8F0E0C4919D
:10018000CC23A1F081110E948C00EC2FF0E0EE0F47
:10019000FF1FE458FF4FA591B491EC91ED2381E04E
:1001A00090E009F480E0DF91CF91089580E090E045
:1001B000FACF1F93CF93DF93282F30E0F901E25558
:1001C000FF4F8491F901E656FF4FD491F901EA57A8
:1001D000FF4FC491CC23A9F0162F81110E948C00EF
:1001E000EC2FF0E0EE0FFF1FEE58FF4FA591B491FA
:1001F0008FB7F894EC91111108C0D095DE23DC93F1
:100200008FBFDF91CF911F910895DE2BF8CFCF9351
:10021000DF9390E0FC01E656FF4F24918A579F4FF1
:10022000FC0184918823D1F090E0880F991FFC0194
:10023000E859FF4FA591B491FC01EE58FF4FC591CD
:10024000D49161110EC09FB7F8948C91E22FE09584
:100250008E238C932881E223E8839FBFDF91CF9187
:1002600008958FB7F894EC91E22BEC938FBFF6CF03
:100270003FB7F8948091290190912A01A0912B0118
:10028000B0912C0126B5A89B05C02F3F19F001960F
:10029000A11DB11D3FBFBA2FA92F982F8827BC01E0
:1002A000CD01620F711D811D911D42E0660F771F08
:1002B000881F991F4A95D1F70895AF92BF92CF92A8
:1002C000DF92EF92FF920F931F93CF93DF936C0116
:1002D0007B018B01040F151FEB015E01AE18BF08F7
:1002E000C017D10759F06991D601ED91FC910190A9
:1002F000F081E02DC6010995892B79F7C501DF91C1
:10030000CF911F910F91FF90EF90DF90CF90BF9012
:10031000AF900895089590E080E00895CF93DF9323
:10032000EC0160E08E810E94D90061E08E810E9424
:10033000D90060E08E810E94D9008BE891E001979E
:10034000F1F7DF91CF910895CF92DF92EF92FF9274
:100350000F931F93CF93DF936C017C0187E0E80E2E
:10036000F11CD0E0C0E0062F10E0B8010C2E02C056
:10037000759567950A94E2F76170F70181917F01A5
:100380000E94D9002196C430D10579F7C601DF91CA
:10039000CF911F910F91FF90EF90DF90CF900C9431
:1003A0008E01CF92DF92EF92FF920F931F93CF9324
:1003B000DF93EC01F62E642F8C810E94D9008D8191
:1003C0008F3F19F060E00E94D9000F2D10E08F855B
:1003D00084FF25C06E0187E0C80ED11CF12CE12CF2
:1003E000B8010E2C02C0759567950A94E2F761700A
:1003F000F60181916F010E94D900FFEFEF1AFF0A09
:1004000088E0E816F10461F7CE01DF91CF911F91EA
:100410000F91FF90EF90DF90CF900C948E01B80178
:1004200084E0759567958A95E1F7CE010E94A40155
:100430006F2DCE01DF91CF911F910F91FF90EF9023
:10044000DF90CF900C94A40141E00E94D10181E0A3
:1004500090E008951F920F920FB60F9211242F93E0
:100460003F938F939F93AF93BF938091250190917A
:100470002601A0912701B09128013091240123E0A9
:10048000230F2D3758F50196A11DB11D209324018E
:100490008093250190932601A0932701B093280112
:1004A0008091290190912A01A0912B01B0912C01FA
:1004B0000196A11DB11D8093290190932A01A0935B
:1004C0002B01B0932C01BF91AF919F918F913F91E0
:1004D0002F910F900FBE0F901F90189526E8230FB5
:1004E0000296A11DB11DD2CF789484B5826084BDDF
:1004F00084B5816084BD85B5826085BD85B5816028
:1005000085BD80916E00816080936E0010928100A5
:100510008091810082608093810080918100816060
:100520008093810080918000816080938000809121
:10053000B10084608093B1008091B00081608093AD
:10054000B00080917A00846080937A0080917A0074
:10055000826080937A0080917A00816080937A0033
:1005600080917A00806880937A001092C10061E0E7
:100570008DE00E94070160E081E00E940701C0E079
:10058000D0E00E94B500892B31F50E9438014B0163
:100590005C0182E3C82ED12CE12CF12C0E943801A1
:1005A000681979098A099B09683E7340810591059C
:1005B000A8F321E0C21AD108E108F10888EE880EFC
:1005C00083E0981EA11CB11CC114D104E104F10404
:1005D00029F70E94B5002097A1F20E940000D1CF18
:1005E000CF93DF9310920F0110920E0184E091E0FF
:1005F00090930D0180930C018CE0809310018FEF9C
:10060000809311018BE08093120185E080931301A8
:1006100084E08093140183E08093150182E080934D
:1006200016011092170110921801109219011092E0
:100630001A0110921B0181E080931F01109220018A
:1006400080E48093210180E18093220180E5809302
:10065000230161E08CE00E940701809111018F3F2E
:1006600019F061E00E94070161E0809112010E948F
:100670000701CCE0D1E09E012C50314080911B015C
:1006800084FD0BC084E090E021962817390744F4DC
:1006900061E08E810E940701EECF88E090E0F4CF08
:1006A0008BE39DE00197F1F760E0809110010E94DB
:1006B000D90060E0809112010E94D900809111015F
:1006C0008F3F19F060E00E94D90060911B0164FD2A
:1006D00045C063E08CE091E00E94A401CBE4D6E445
:1006E000CE010197F1F763E08CE091E00E94A40154
:1006F0002197F1F763E08CE091E00E94A40183E58B
:1007000092E00197F1F762E08CE091E00E94A40191
:1007100060911B01606240E08CE091E00E94D10199
:1007200084E080931C0140E06CE08CE091E00E944A
:10073000D10140E061E08CE091E00E94D1018BE3C7
:100740009FE10197F1F782E080931D0140E066E0B0
:100750008CE091E0DF91CF910C94D101606240E098
:100760008CE091E00E94D1018BE496E40197F1F7CF
:1007700060911B01606240E08CE091E00E94D10139
:1007800083E592E00197F1F760911B01606240E020
:100790008CE091E00E94D101BBCFEE0FFF1F0590CE
:0A07A000F491E02D0994F894FFCFC6
:0C07AA000000000024025D018B018A01A8
:00000001FF
